{
  "contractName": "PassageMain",
  "abi": [
    {
      "constant": true,
      "inputs": [
        {
          "name": "",
          "type": "uint256"
        }
      ],
      "name": "certifingUsers",
      "outputs": [
        {
          "name": "",
          "type": "address"
        }
      ],
      "payable": false,
      "stateMutability": "view",
      "type": "function"
    },
    {
      "constant": true,
      "inputs": [
        {
          "name": "",
          "type": "uint256"
        }
      ],
      "name": "productVersionIds",
      "outputs": [
        {
          "name": "",
          "type": "bytes32"
        }
      ],
      "payable": false,
      "stateMutability": "view",
      "type": "function"
    },
    {
      "constant": false,
      "inputs": [
        {
          "name": "_productId",
          "type": "bytes32"
        }
      ],
      "name": "acceptOwnershipTransfer",
      "outputs": [],
      "payable": false,
      "stateMutability": "nonpayable",
      "type": "function"
    },
    {
      "constant": true,
      "inputs": [
        {
          "name": "",
          "type": "uint256"
        }
      ],
      "name": "certificationIds",
      "outputs": [
        {
          "name": "",
          "type": "bytes32"
        }
      ],
      "payable": false,
      "stateMutability": "view",
      "type": "function"
    },
    {
      "constant": true,
      "inputs": [
        {
          "name": "",
          "type": "bytes32"
        },
        {
          "name": "",
          "type": "uint256"
        }
      ],
      "name": "nodeToParents",
      "outputs": [
        {
          "name": "",
          "type": "bytes32"
        }
      ],
      "payable": false,
      "stateMutability": "view",
      "type": "function"
    },
    {
      "constant": true,
      "inputs": [
        {
          "name": "",
          "type": "address"
        }
      ],
      "name": "actorAddressToActorStruct",
      "outputs": [
        {
          "name": "actorId",
          "type": "bytes32"
        },
        {
          "name": "name",
          "type": "string"
        },
        {
          "name": "accountAddress",
          "type": "address"
        },
        {
          "name": "physicalAddress",
          "type": "string"
        }
      ],
      "payable": false,
      "stateMutability": "view",
      "type": "function"
    },
    {
      "constant": true,
      "inputs": [
        {
          "name": "",
          "type": "bytes32"
        }
      ],
      "name": "productIdToProductStruct",
      "outputs": [
        {
          "name": "exists",
          "type": "bool"
        },
        {
          "name": "archived",
          "type": "bool"
        },
        {
          "name": "productId",
          "type": "bytes32"
        },
        {
          "name": "latestVersionId",
          "type": "bytes32"
        },
        {
          "name": "owner",
          "type": "address"
        },
        {
          "name": "nextAuthorizedOwnerAddress",
          "type": "address"
        },
        {
          "name": "name",
          "type": "string"
        },
        {
          "name": "description",
          "type": "string"
        }
      ],
      "payable": false,
      "stateMutability": "view",
      "type": "function"
    },
    {
      "constant": false,
      "inputs": [
        {
          "name": "_productId",
          "type": "bytes32"
        },
        {
          "name": "_newOwnerAddress",
          "type": "address"
        }
      ],
      "name": "requestOwnershipTransfer",
      "outputs": [],
      "payable": false,
      "stateMutability": "nonpayable",
      "type": "function"
    },
    {
      "constant": true,
      "inputs": [
        {
          "name": "",
          "type": "bytes32"
        }
      ],
      "name": "certificationIdToCertificationStruct",
      "outputs": [
        {
          "name": "certificationId",
          "type": "bytes32"
        },
        {
          "name": "name",
          "type": "string"
        },
        {
          "name": "imageUrl",
          "type": "string"
        }
      ],
      "payable": false,
      "stateMutability": "view",
      "type": "function"
    },
    {
      "constant": true,
      "inputs": [
        {
          "name": "",
          "type": "bytes32"
        }
      ],
      "name": "versionIdToVersionStruct",
      "outputs": [
        {
          "name": "versionId",
          "type": "bytes32"
        },
        {
          "name": "previousVersionId",
          "type": "bytes32"
        },
        {
          "name": "creationDate",
          "type": "uint256"
        },
        {
          "name": "owner",
          "type": "address"
        },
        {
          "name": "latitude",
          "type": "string"
        },
        {
          "name": "longitude",
          "type": "string"
        },
        {
          "name": "customJsonData",
          "type": "string"
        }
      ],
      "payable": false,
      "stateMutability": "view",
      "type": "function"
    },
    {
      "constant": true,
      "inputs": [
        {
          "name": "",
          "type": "uint256"
        }
      ],
      "name": "actorAddresses",
      "outputs": [
        {
          "name": "",
          "type": "address"
        }
      ],
      "payable": false,
      "stateMutability": "view",
      "type": "function"
    },
    {
      "constant": true,
      "inputs": [],
      "name": "godUser",
      "outputs": [
        {
          "name": "",
          "type": "address"
        }
      ],
      "payable": false,
      "stateMutability": "view",
      "type": "function"
    },
    {
      "constant": true,
      "inputs": [
        {
          "name": "",
          "type": "bytes32"
        },
        {
          "name": "",
          "type": "uint256"
        }
      ],
      "name": "nodeToChildren",
      "outputs": [
        {
          "name": "",
          "type": "bytes32"
        }
      ],
      "payable": false,
      "stateMutability": "view",
      "type": "function"
    },
    {
      "constant": true,
      "inputs": [
        {
          "name": "",
          "type": "uint256"
        }
      ],
      "name": "productIds",
      "outputs": [
        {
          "name": "",
          "type": "bytes32"
        }
      ],
      "payable": false,
      "stateMutability": "view",
      "type": "function"
    },
    {
      "constant": true,
      "inputs": [
        {
          "name": "",
          "type": "address"
        },
        {
          "name": "",
          "type": "uint256"
        }
      ],
      "name": "ownerToProductsId",
      "outputs": [
        {
          "name": "",
          "type": "bytes32"
        }
      ],
      "payable": false,
      "stateMutability": "view",
      "type": "function"
    },
    {
      "inputs": [],
      "payable": false,
      "stateMutability": "nonpayable",
      "type": "constructor"
    },
    {
      "anonymous": false,
      "inputs": [
        {
          "indexed": false,
          "name": "newProductId",
          "type": "bytes32"
        },
        {
          "indexed": true,
          "name": "owner",
          "type": "address"
        }
      ],
      "name": "ProductCreated",
      "type": "event"
    },
    {
      "constant": false,
      "inputs": [
        {
          "name": "_name",
          "type": "string"
        },
        {
          "name": "_description",
          "type": "string"
        },
        {
          "name": "_latitude",
          "type": "string"
        },
        {
          "name": "_longitude",
          "type": "string"
        },
        {
          "name": "_certificationsIds",
          "type": "bytes32[]"
        },
        {
          "name": "_customJsonData",
          "type": "string"
        }
      ],
      "name": "createProduct",
      "outputs": [
        {
          "name": "productId",
          "type": "bytes32"
        }
      ],
      "payable": false,
      "stateMutability": "nonpayable",
      "type": "function"
    },
    {
      "constant": false,
      "inputs": [
        {
          "name": "_productId",
          "type": "bytes32"
        },
        {
          "name": "_latitude",
          "type": "string"
        },
        {
          "name": "_longitude",
          "type": "string"
        },
        {
          "name": "_customJsonData",
          "type": "string"
        }
      ],
      "name": "updateProduct",
      "outputs": [],
      "payable": false,
      "stateMutability": "nonpayable",
      "type": "function"
    },
    {
      "constant": true,
      "inputs": [
        {
          "name": "_productId",
          "type": "bytes32"
        },
        {
          "name": "specificVersionId",
          "type": "bytes32"
        }
      ],
      "name": "getProductById",
      "outputs": [
        {
          "name": "name",
          "type": "string"
        },
        {
          "name": "description",
          "type": "string"
        },
        {
          "name": "_latitude",
          "type": "string"
        },
        {
          "name": "_longitude",
          "type": "string"
        },
        {
          "name": "versionCreationDate",
          "type": "uint256"
        },
        {
          "name": "versions",
          "type": "bytes32[]"
        },
        {
          "name": "certificationsIds",
          "type": "bytes32[]"
        }
      ],
      "payable": false,
      "stateMutability": "view",
      "type": "function"
    },
    {
      "constant": true,
      "inputs": [
        {
          "name": "_productId",
          "type": "bytes32"
        },
        {
          "name": "specificVersionId",
          "type": "bytes32"
        }
      ],
      "name": "getProductCustomDataById",
      "outputs": [
        {
          "name": "customJsonData",
          "type": "string"
        }
      ],
      "payable": false,
      "stateMutability": "view",
      "type": "function"
    },
    {
      "constant": false,
      "inputs": [
        {
          "name": "_originalProductId",
          "type": "bytes32"
        },
        {
          "name": "_newProductIds",
          "type": "bytes32[]"
        }
      ],
      "name": "saveProductChildren",
      "outputs": [],
      "payable": false,
      "stateMutability": "nonpayable",
      "type": "function"
    },
    {
      "constant": false,
      "inputs": [
        {
          "name": "_parts",
          "type": "bytes32[]"
        },
        {
          "name": "_name",
          "type": "string"
        },
        {
          "name": "_description",
          "type": "string"
        },
        {
          "name": "_latitude",
          "type": "string"
        },
        {
          "name": "_longitude",
          "type": "string"
        }
      ],
      "name": "combineProducts",
      "outputs": [
        {
          "name": "newProductId",
          "type": "bytes32"
        }
      ],
      "payable": false,
      "stateMutability": "nonpayable",
      "type": "function"
    },
    {
      "constant": true,
      "inputs": [],
      "name": "getOwnerProducts",
      "outputs": [
        {
          "name": "productsIds",
          "type": "bytes32[]"
        }
      ],
      "payable": false,
      "stateMutability": "view",
      "type": "function"
    },
    {
      "constant": false,
      "inputs": [
        {
          "name": "_name",
          "type": "string"
        },
        {
          "name": "_imageUrl",
          "type": "string"
        },
        {
          "name": "_certificationOwner",
          "type": "address"
        }
      ],
      "name": "createCertification",
      "outputs": [
        {
          "name": "certificationId",
          "type": "bytes32"
        }
      ],
      "payable": false,
      "stateMutability": "nonpayable",
      "type": "function"
    },
    {
      "constant": true,
      "inputs": [],
      "name": "getAllCertificationsIds",
      "outputs": [
        {
          "name": "certificationsIds",
          "type": "bytes32[]"
        }
      ],
      "payable": false,
      "stateMutability": "view",
      "type": "function"
    },
    {
      "constant": true,
      "inputs": [],
      "name": "getActorCertificationsIds",
      "outputs": [
        {
          "name": "certificationsIds",
          "type": "bytes32[]"
        }
      ],
      "payable": false,
      "stateMutability": "view",
      "type": "function"
    },
    {
      "constant": true,
      "inputs": [
        {
          "name": "_certificationId",
          "type": "bytes32"
        }
      ],
      "name": "getCertificationById",
      "outputs": [
        {
          "name": "name",
          "type": "string"
        },
        {
          "name": "imageUrl",
          "type": "string"
        }
      ],
      "payable": false,
      "stateMutability": "view",
      "type": "function"
    },
    {
      "constant": true,
      "inputs": [
        {
          "name": "_versionId",
          "type": "bytes32"
        }
      ],
      "name": "getVersionLatLngById",
      "outputs": [
        {
          "name": "latitude",
          "type": "string"
        },
        {
          "name": "longitude",
          "type": "string"
        }
      ],
      "payable": false,
      "stateMutability": "view",
      "type": "function"
    },
    {
      "constant": false,
      "inputs": [
        {
          "name": "_newGodAddress",
          "type": "address"
        }
      ],
      "name": "updateGodUser",
      "outputs": [],
      "payable": false,
      "stateMutability": "nonpayable",
      "type": "function"
    },
    {
      "constant": true,
      "inputs": [],
      "name": "isUserGod",
      "outputs": [
        {
          "name": "",
          "type": "bool"
        }
      ],
      "payable": false,
      "stateMutability": "view",
      "type": "function"
    }
  ],
  "bytecode": "0x608060405234801561001057600080fd5b5033600b60006101000a81548173ffffffffffffffffffffffffffffffffffffffff021916908373ffffffffffffffffffffffffffffffffffffffff1602179055506145a0806100616000396000f300608060405260043610610175576000357c0100000000000000000000000000000000000000000000000000000000900463ffffffff16806309f2f0691461017a5780630ebb2821146102905780630f42435b146102fd57806319a54cdd1461034657806322fb420d14610377578063370635e7146103a65780633873ab2414610586578063395c2111146105f25780633c97610d1461063b57806348964476146107d55780634a9011111461082c57806353a7d56d146109965780636231ec3b14610a0257806363802bd014610a7657806364aa3a4814610ae2578063802e62dd14610c925780638495aa1714610f25578063860af69914610f76578063876359e41461109b5780638a752e55146112755780639482300a146112b8578063a25a8a7e14611325578063adf218481461137c578063c81e59861461147f578063cb51bba9146114d6578063d911f5531461151f578063db2b9f1814611635578063db66037b1461169e578063e9baf25814611789575b600080fd5b34801561018657600080fd5b506101a96004803603810190808035600019169060200190929190505050611841565b604051808060200180602001838103835285818151815260200191508051906020019080838360005b838110156101ed5780820151818401526020810190506101d2565b50505050905090810190601f16801561021a5780820380516001836020036101000a031916815260200191505b50838103825284818151815260200191508051906020019080838360005b83811015610253578082015181840152602081019050610238565b50505050905090810190601f1680156102805780820380516001836020036101000a031916815260200191505b5094505050505060405180910390f35b34801561029c57600080fd5b506102bb600480360381019080803590602001909291905050506119ad565b604051808273ffffffffffffffffffffffffffffffffffffffff1673ffffffffffffffffffffffffffffffffffffffff16815260200191505060405180910390f35b34801561030957600080fd5b50610328600480360381019080803590602001909291905050506119eb565b60405180826000191660001916815260200191505060405180910390f35b34801561035257600080fd5b506103756004803603810190808035600019169060200190929190505050611a0e565b005b34801561038357600080fd5b5061038c611bcd565b604051808215151515815260200191505060405180910390f35b3480156103b257600080fd5b50610568600480360381019080803590602001908201803590602001908080601f0160208091040260200160405190810160405280939291908181526020018383808284378201915050505050509192919290803590602001908201803590602001908080601f0160208091040260200160405190810160405280939291908181526020018383808284378201915050505050509192919290803590602001908201803590602001908080601f0160208091040260200160405190810160405280939291908181526020018383808284378201915050505050509192919290803590602001908201803590602001908080601f016020809104026020016040519081016040528093929190818152602001838380828437820191505050505050919291929080359060200190820180359060200190808060200260200160405190810160405280939291908181526020018383602002808284378201915050505050509192919290803590602001908201803590602001908080601f0160208091040260200160405190810160405280939291908181526020018383808284378201915050505050509192919290505050611c25565b60405180826000191660001916815260200191505060405180910390f35b34801561059257600080fd5b5061059b611efe565b6040518080602001828103825283818151815260200191508051906020019060200280838360005b838110156105de5780820151818401526020810190506105c3565b505050509050019250505060405180910390f35b3480156105fe57600080fd5b5061061d60048036038101908080359060200190929190505050612075565b60405180826000191660001916815260200191505060405180910390f35b34801561064757600080fd5b506107b760048036038101908080359060200190820180359060200190808060200260200160405190810160405280939291908181526020018383602002808284378201915050505050509192919290803590602001908201803590602001908080601f0160208091040260200160405190810160405280939291908181526020018383808284378201915050505050509192919290803590602001908201803590602001908080601f0160208091040260200160405190810160405280939291908181526020018383808284378201915050505050509192919290803590602001908201803590602001908080601f0160208091040260200160405190810160405280939291908181526020018383808284378201915050505050509192919290803590602001908201803590602001908080601f0160208091040260200160405190810160405280939291908181526020018383808284378201915050505050509192919290505050612098565b60405180826000191660001916815260200191505060405180910390f35b3480156107e157600080fd5b5061080e6004803603810190808035600019169060200190929190803590602001909291905050506121a1565b60405180826000191660001916815260200191505060405180910390f35b34801561083857600080fd5b5061086d600480360381019080803573ffffffffffffffffffffffffffffffffffffffff1690602001909291905050506121d1565b604051808560001916600019168152602001806020018473ffffffffffffffffffffffffffffffffffffffff1673ffffffffffffffffffffffffffffffffffffffff16815260200180602001838103835286818151815260200191508051906020019080838360005b838110156108f15780820151818401526020810190506108d6565b50505050905090810190601f16801561091e5780820380516001836020036101000a031916815260200191505b50838103825284818151815260200191508051906020019080838360005b8381101561095757808201518184015260208101905061093c565b50505050905090810190601f1680156109845780820380516001836020036101000a031916815260200191505b50965050505050505060405180910390f35b3480156109a257600080fd5b506109ab612351565b6040518080602001828103825283818151815260200191508051906020019060200280838360005b838110156109ee5780820151818401526020810190506109d3565b505050509050019250505060405180910390f35b348015610a0e57600080fd5b50610a746004803603810190808035600019169060200190929190803590602001908201803590602001908080602002602001604051908101604052809392919081815260200183836020028082843782019150505050505091929192905050506123ea565b005b348015610a8257600080fd5b50610a8b612527565b6040518080602001828103825283818151815260200191508051906020019060200280838360005b83811015610ace578082015181840152602081019050610ab3565b505050509050019250505060405180910390f35b348015610aee57600080fd5b50610b116004803603810190808035600019169060200190929190505050612583565b604051808915151515815260200188151515158152602001876000191660001916815260200186600019166000191681526020018573ffffffffffffffffffffffffffffffffffffffff1673ffffffffffffffffffffffffffffffffffffffff1681526020018473ffffffffffffffffffffffffffffffffffffffff1673ffffffffffffffffffffffffffffffffffffffff1681526020018060200180602001838103835285818151815260200191508051906020019080838360005b83811015610be9578082015181840152602081019050610bce565b50505050905090810190601f168015610c165780820380516001836020036101000a031916815260200191505b50838103825284818151815260200191508051906020019080838360005b83811015610c4f578082015181840152602081019050610c34565b50505050905090810190601f168015610c7c5780820380516001836020036101000a031916815260200191505b509a505050505050505050505060405180910390f35b348015610c9e57600080fd5b50610ccf60048036038101908080356000191690602001909291908035600019169060200190929190505050612755565b6040518080602001806020018060200180602001888152602001806020018060200187810387528e818151815260200191508051906020019080838360005b83811015610d29578082015181840152602081019050610d0e565b50505050905090810190601f168015610d565780820380516001836020036101000a031916815260200191505b5087810386528d818151815260200191508051906020019080838360005b83811015610d8f578082015181840152602081019050610d74565b50505050905090810190601f168015610dbc5780820380516001836020036101000a031916815260200191505b5087810385528c818151815260200191508051906020019080838360005b83811015610df5578082015181840152602081019050610dda565b50505050905090810190601f168015610e225780820380516001836020036101000a031916815260200191505b5087810384528b818151815260200191508051906020019080838360005b83811015610e5b578082015181840152602081019050610e40565b50505050905090810190601f168015610e885780820380516001836020036101000a031916815260200191505b50878103835289818151815260200191508051906020019060200280838360005b83811015610ec4578082015181840152602081019050610ea9565b50505050905001878103825288818151815260200191508051906020019060200280838360005b83811015610f06578082015181840152602081019050610eeb565b505050509050019d505050505050505050505050505060405180910390f35b348015610f3157600080fd5b50610f746004803603810190808035600019169060200190929190803573ffffffffffffffffffffffffffffffffffffffff169060200190929190505050612b7c565b005b348015610f8257600080fd5b50610fa56004803603810190808035600019169060200190929190505050612c53565b6040518084600019166000191681526020018060200180602001838103835285818151815260200191508051906020019080838360005b83811015610ff7578082015181840152602081019050610fdc565b50505050905090810190601f1680156110245780820380516001836020036101000a031916815260200191505b50838103825284818151815260200191508051906020019080838360005b8381101561105d578082015181840152602081019050611042565b50505050905090810190601f16801561108a5780820380516001836020036101000a031916815260200191505b509550505050505060405180910390f35b3480156110a757600080fd5b506110ca6004803603810190808035600019169060200190929190505050612dad565b60405180886000191660001916815260200187600019166000191681526020018681526020018573ffffffffffffffffffffffffffffffffffffffff1673ffffffffffffffffffffffffffffffffffffffff168152602001806020018060200180602001848103845287818151815260200191508051906020019080838360005b8381101561116657808201518184015260208101905061114b565b50505050905090810190601f1680156111935780820380516001836020036101000a031916815260200191505b50848103835286818151815260200191508051906020019080838360005b838110156111cc5780820151818401526020810190506111b1565b50505050905090810190601f1680156111f95780820380516001836020036101000a031916815260200191505b50848103825285818151815260200191508051906020019080838360005b83811015611232578082015181840152602081019050611217565b50505050905090810190601f16801561125f5780820380516001836020036101000a031916815260200191505b509a505050505050505050505060405180910390f35b34801561128157600080fd5b506112b6600480360381019080803573ffffffffffffffffffffffffffffffffffffffff169060200190929190505050612fd7565b005b3480156112c457600080fd5b506112e3600480360381019080803590602001909291905050506130b3565b604051808273ffffffffffffffffffffffffffffffffffffffff1673ffffffffffffffffffffffffffffffffffffffff16815260200191505060405180910390f35b34801561133157600080fd5b5061133a6130f1565b604051808273ffffffffffffffffffffffffffffffffffffffff1673ffffffffffffffffffffffffffffffffffffffff16815260200191505060405180910390f35b34801561138857600080fd5b5061147d6004803603810190808035600019169060200190929190803590602001908201803590602001908080601f0160208091040260200160405190810160405280939291908181526020018383808284378201915050505050509192919290803590602001908201803590602001908080601f0160208091040260200160405190810160405280939291908181526020018383808284378201915050505050509192919290803590602001908201803590602001908080601f0160208091040260200160405190810160405280939291908181526020018383808284378201915050505050509192919290505050613117565b005b34801561148b57600080fd5b506114b860048036038101908080356000191690602001909291908035906020019092919050505061337c565b60405180826000191660001916815260200191505060405180910390f35b3480156114e257600080fd5b50611501600480360381019080803590602001909291905050506133ac565b60405180826000191660001916815260200191505060405180910390f35b34801561152b57600080fd5b5061154e60048036038101908080356000191690602001909291905050506133cf565b604051808060200180602001838103835285818151815260200191508051906020019080838360005b83811015611592578082015181840152602081019050611577565b50505050905090810190601f1680156115bf5780820380516001836020036101000a031916815260200191505b50838103825284818151815260200191508051906020019080838360005b838110156115f85780820151818401526020810190506115dd565b50505050905090810190601f1680156116255780820380516001836020036101000a031916815260200191505b5094505050505060405180910390f35b34801561164157600080fd5b50611680600480360381019080803573ffffffffffffffffffffffffffffffffffffffff1690602001909291908035906020019092919050505061353b565b60405180826000191660001916815260200191505060405180910390f35b3480156116aa57600080fd5b5061176b600480360381019080803590602001908201803590602001908080601f0160208091040260200160405190810160405280939291908181526020018383808284378201915050505050509192919290803590602001908201803590602001908080601f0160208091040260200160405190810160405280939291908181526020018383808284378201915050505050509192919290803573ffffffffffffffffffffffffffffffffffffffff16906020019092919050505061356b565b60405180826000191660001916815260200191505060405180910390f35b34801561179557600080fd5b506117c660048036038101908080356000191690602001909291908035600019169060200190929190505050613763565b6040518080602001828103825283818151815260200191508051906020019080838360005b838110156118065780820151818401526020810190506117eb565b50505050905090810190601f1680156118335780820380516001836020036101000a031916815260200191505b509250505060405180910390f35b606080600060026000856000191660001916815260200190815260200160002090508060040181600501818054600181600116156101000203166002900480601f0160208091040260200160405190810160405280929190818152602001828054600181600116156101000203166002900480156119005780601f106118d557610100808354040283529160200191611900565b820191906000526020600020905b8154815290600101906020018083116118e357829003601f168201915b50505050509150808054600181600116156101000203166002900480601f01602080910402602001604051908101604052809291908181526020018280546001816001161561010002031660029004801561199c5780601f106119715761010080835404028352916020019161199c565b820191906000526020600020905b81548152906001019060200180831161197f57829003601f168201915b505050505090509250925050915091565b600c818154811015156119bc57fe5b906000526020600020016000915054906101000a900473ffffffffffffffffffffffffffffffffffffffff1681565b6003818154811015156119fa57fe5b906000526020600020016000915090505481565b6000806000836000191660001916815260200190815260200160002060060160009054906101000a900473ffffffffffffffffffffffffffffffffffffffff1673ffffffffffffffffffffffffffffffffffffffff168160020160009054906101000a900473ffffffffffffffffffffffffffffffffffffffff1673ffffffffffffffffffffffffffffffffffffffff16141515611aab57600080fd5b600560003373ffffffffffffffffffffffffffffffffffffffff1673ffffffffffffffffffffffffffffffffffffffff16815260200190815260200160002090506000806000846000191660001916815260200190815260200160002060060160006101000a81548173ffffffffffffffffffffffffffffffffffffffff021916908373ffffffffffffffffffffffffffffffffffffffff1602179055508060020160009054906101000a900473ffffffffffffffffffffffffffffffffffffffff16600080846000191660001916815260200190815260200160002060050160006101000a81548173ffffffffffffffffffffffffffffffffffffffff021916908373ffffffffffffffffffffffffffffffffffffffff1602179055505050565b60003373ffffffffffffffffffffffffffffffffffffffff16600b60009054906101000a900473ffffffffffffffffffffffffffffffffffffffff1673ffffffffffffffffffffffffffffffffffffffff1614905090565b60008060004233604051808381526020018273ffffffffffffffffffffffffffffffffffffffff1673ffffffffffffffffffffffffffffffffffffffff166c01000000000000000000000000028152601401925050506040518091039020915060008083600019166000191681526020019081526020016000209050818160010181600019169055507f30000000000000000000000000000000000000000000000000000000000000008160020181600019169055506000604051908082528060200260200182016040528015611d0b5781602001602082028038833980820191505090505b50816003019080519060200190611d23929190614457565b5060018160000160006101000a81548160ff02191690831515021790555060008160000160016101000a81548160ff021916908315150217905550338160050160006101000a81548173ffffffffffffffffffffffffffffffffffffffff021916908373ffffffffffffffffffffffffffffffffffffffff16021790555088816007019080519060200190611db99291906144aa565b5087816008019080519060200190611dd29291906144aa565b5084816004019080519060200190611deb929190614457565b506001829080600181540180825580915050906001820390600052602060002001600090919290919091509060001916905550600460003373ffffffffffffffffffffffffffffffffffffffff1673ffffffffffffffffffffffffffffffffffffffff168152602001908152602001600020829080600181540180825580915050906001820390600052602060002001600090919290919091509060001916905550611e9982888887613117565b3373ffffffffffffffffffffffffffffffffffffffff167f1f3cd26d22ddb1ce87773315d1a9a80f4c46a7aaf7a8d3c23827523b8976f9128360405180826000191660001916815260200191505060405180910390a281925050509695505050505050565b60608060606000600460003373ffffffffffffffffffffffffffffffffffffffff1673ffffffffffffffffffffffffffffffffffffffff168152602001908152602001600020805480602002602001604051908101604052809291908181526020018280548015611f9257602002820191906000526020600020905b81546000191681526020019060010190808311611f7a575b505050505092508251604051908082528060200260200182016040528015611fc95781602001602082028038833980820191505090505b509150600090505b825181101561206c576000808483815181101515611feb57fe5b906020019060200201516000191660001916815260200190815260200160002060000160019054906101000a900460ff16151561206157828181518110151561203057fe5b90602001906020020151828281518110151561204857fe5b9060200190602002019060001916908160001916815250505b806001019050611fd1565b81935050505090565b60088181548110151561208457fe5b906000526020600020016000915090505481565b600060606000806120a8896138d3565b92506120c888888888876020604051908101604052806000815250611c25565b9150600090505b885181101561219257600960008360001916600019168152602001908152602001600020898281518110151561210157fe5b90602001906020020151908060018154018082558091505090600182039060005260206000200160009091929091909150906000191690555060016000808b8481518110151561214d57fe5b906020019060200201516000191660001916815260200190815260200160002060000160016101000a81548160ff0219169083151502179055508060010190506120cf565b81935050505095945050505050565b6009602052816000526040600020818154811015156121bc57fe5b90600052602060002001600091509150505481565b6005602052806000526040600020600091509050806000015490806001018054600181600116156101000203166002900480601f0160208091040260200160405190810160405280929190818152602001828054600181600116156101000203166002900480156122835780601f1061225857610100808354040283529160200191612283565b820191906000526020600020905b81548152906001019060200180831161226657829003601f168201915b5050505050908060020160009054906101000a900473ffffffffffffffffffffffffffffffffffffffff1690806003018054600181600116156101000203166002900480601f0160208091040260200160405190810160405280929190818152602001828054600181600116156101000203166002900480156123475780601f1061231c57610100808354040283529160200191612347565b820191906000526020600020905b81548152906001019060200180831161232a57829003601f168201915b5050505050905084565b6060600d60003373ffffffffffffffffffffffffffffffffffffffff1673ffffffffffffffffffffffffffffffffffffffff1681526020019081526020016000208054806020026020016040519081016040528092919081815260200182805480156123e057602002820191906000526020600020905b815460001916815260200190600101908083116123c8575b5050505050905090565b600082600080826000191660001916815260200190815260200160002060000160009054906101000a900460ff16151561242357600080fd5b8260008060019150600090505b825181101561249757600080848381518110151561244a57fe5b906020019060200201516000191660001916815260200190815260200160002060000160009054906101000a900460ff16151561248a5760009150612497565b8080600101915050612430565b8115156124a357600080fd5b600094505b855185101561251e57600a6000886000191660001916815260200190815260200160002086868151811015156124da57fe5b9060200190602002015190806001815401808255809150509060018203906000526020600020016000909192909190915090600019169055508460010194506124a8565b50505050505050565b6060600880548060200260200160405190810160405280929190818152602001828054801561257957602002820191906000526020600020905b81546000191681526020019060010190808311612561575b5050505050905090565b60006020528060005260406000206000915090508060000160009054906101000a900460ff16908060000160019054906101000a900460ff16908060010154908060020154908060050160009054906101000a900473ffffffffffffffffffffffffffffffffffffffff16908060060160009054906101000a900473ffffffffffffffffffffffffffffffffffffffff1690806007018054600181600116156101000203166002900480601f0160208091040260200160405190810160405280929190818152602001828054600181600116156101000203166002900480156126ad5780601f10612682576101008083540402835291602001916126ad565b820191906000526020600020905b81548152906001019060200180831161269057829003601f168201915b505050505090806008018054600181600116156101000203166002900480601f01602080910402602001604051908101604052809291908181526020018280546001816001161561010002031660029004801561274b5780601f106127205761010080835404028352916020019161274b565b820191906000526020600020905b81548152906001019060200180831161272e57829003601f168201915b5050505050905088565b60608060608060006060806000808a600080826000191660001916815260200190815260200160002060000160009054906101000a900460ff16151561279a57600080fd5b6000808d6000191660001916815260200190815260200160002092507f6c617465737400000000000000000000000000000000000000000000000000008b60001916141561280857600260008460020154600019166000191681526020019081526020016000209150612826565b600260008c6000191660001916815260200190815260200160002091505b8260070183600801836004018460050185600201548760030188600401868054600181600116156101000203166002900480601f0160208091040260200160405190810160405280929190818152602001828054600181600116156101000203166002900480156128d85780601f106128ad576101008083540402835291602001916128d8565b820191906000526020600020905b8154815290600101906020018083116128bb57829003601f168201915b50505050509650858054600181600116156101000203166002900480601f0160208091040260200160405190810160405280929190818152602001828054600181600116156101000203166002900480156129745780601f1061294957610100808354040283529160200191612974565b820191906000526020600020905b81548152906001019060200180831161295757829003601f168201915b50505050509550848054600181600116156101000203166002900480601f016020809104026020016040519081016040528092919081815260200182805460018160011615610100020316600290048015612a105780601f106129e557610100808354040283529160200191612a10565b820191906000526020600020905b8154815290600101906020018083116129f357829003601f168201915b50505050509450838054600181600116156101000203166002900480601f016020809104026020016040519081016040528092919081815260200182805460018160011615610100020316600290048015612aac5780601f10612a8157610100808354040283529160200191612aac565b820191906000526020600020905b815481529060010190602001808311612a8f57829003601f168201915b5050505050935081805480602002602001604051908101604052809291908181526020018280548015612b0257602002820191906000526020600020905b81546000191681526020019060010190808311612aea575b5050505050915080805480602002602001604051908101604052809291908181526020018280548015612b5857602002820191906000526020600020905b81546000191681526020019060010190808311612b40575b50505050509050995099509950995099509950995050505092959891949750929550565b600080836000191660001916815260200190815260200160002060050160009054906101000a900473ffffffffffffffffffffffffffffffffffffffff1673ffffffffffffffffffffffffffffffffffffffff163373ffffffffffffffffffffffffffffffffffffffff16141515612bf357600080fd5b80600080846000191660001916815260200190815260200160002060060160006101000a81548173ffffffffffffffffffffffffffffffffffffffff021916908373ffffffffffffffffffffffffffffffffffffffff1602179055505050565b6007602052806000526040600020600091509050806000015490806001018054600181600116156101000203166002900480601f016020809104026020016040519081016040528092919081815260200182805460018160011615610100020316600290048015612d055780601f10612cda57610100808354040283529160200191612d05565b820191906000526020600020905b815481529060010190602001808311612ce857829003601f168201915b505050505090806002018054600181600116156101000203166002900480601f016020809104026020016040519081016040528092919081815260200182805460018160011615610100020316600290048015612da35780601f10612d7857610100808354040283529160200191612da3565b820191906000526020600020905b815481529060010190602001808311612d8657829003601f168201915b5050505050905083565b60026020528060005260406000206000915090508060000154908060010154908060020154908060030160009054906101000a900473ffffffffffffffffffffffffffffffffffffffff1690806004018054600181600116156101000203166002900480601f016020809104026020016040519081016040528092919081815260200182805460018160011615610100020316600290048015612e915780601f10612e6657610100808354040283529160200191612e91565b820191906000526020600020905b815481529060010190602001808311612e7457829003601f168201915b505050505090806005018054600181600116156101000203166002900480601f016020809104026020016040519081016040528092919081815260200182805460018160011615610100020316600290048015612f2f5780601f10612f0457610100808354040283529160200191612f2f565b820191906000526020600020905b815481529060010190602001808311612f1257829003601f168201915b505050505090806006018054600181600116156101000203166002900480601f016020809104026020016040519081016040528092919081815260200182805460018160011615610100020316600290048015612fcd5780601f10612fa257610100808354040283529160200191612fcd565b820191906000526020600020905b815481529060010190602001808311612fb057829003601f168201915b5050505050905087565b600b60009054906101000a900473ffffffffffffffffffffffffffffffffffffffff1673ffffffffffffffffffffffffffffffffffffffff163373ffffffffffffffffffffffffffffffffffffffff1614151561303357600080fd5b600073ffffffffffffffffffffffffffffffffffffffff168173ffffffffffffffffffffffffffffffffffffffff161415151561306f57600080fd5b80600b60006101000a81548173ffffffffffffffffffffffffffffffffffffffff021916908373ffffffffffffffffffffffffffffffffffffffff16021790555050565b6006818154811015156130c257fe5b906000526020600020016000915054906101000a900473ffffffffffffffffffffffffffffffffffffffff1681565b600b60009054906101000a900473ffffffffffffffffffffffffffffffffffffffff1681565b600080600086600080826000191660001916815260200190815260200160002060000160009054906101000a900460ff16151561315357600080fd5b876000600a600083600019166000191681526020019081526020016000208054905014151561318157600080fd5b6000808a60001916600019168152602001908152602001600020945042338a604051808481526020018373ffffffffffffffffffffffffffffffffffffffff1673ffffffffffffffffffffffffffffffffffffffff166c01000000000000000000000000028152601401826000191660001916815260200193505050506040518091039020935060026000856000191660001916815260200190815260200160002092508383600001816000191690555042836002018190555084600201548360010181600019169055508460050160009054906101000a900473ffffffffffffffffffffffffffffffffffffffff168360030160006101000a81548173ffffffffffffffffffffffffffffffffffffffff021916908373ffffffffffffffffffffffffffffffffffffffff160217905550878360040190805190602001906132cb9291906144aa565b50868360050190805190602001906132e49291906144aa565b50858360060190805190602001906132fd9291906144aa565b5060038490806001815401808255809150509060018203906000526020600020016000909192909190915090600019169055508460030184908060018154018082558091505090600182039060005260206000200160009091929091909150906000191690555083856002018160001916905550505050505050505050565b600a6020528160005260406000208181548110151561339757fe5b90600052602060002001600091509150505481565b6001818154811015156133bb57fe5b906000526020600020016000915090505481565b606080600060076000856000191660001916815260200190815260200160002090508060010181600201818054600181600116156101000203166002900480601f01602080910402602001604051908101604052809291908181526020018280546001816001161561010002031660029004801561348e5780601f106134635761010080835404028352916020019161348e565b820191906000526020600020905b81548152906001019060200180831161347157829003601f168201915b50505050509150808054600181600116156101000203166002900480601f01602080910402602001604051908101604052809291908181526020018280546001816001161561010002031660029004801561352a5780601f106134ff5761010080835404028352916020019161352a565b820191906000526020600020905b81548152906001019060200180831161350d57829003601f168201915b505050505090509250925050915091565b60046020528160005260406000208181548110151561355657fe5b90600052602060002001600091509150505481565b60008060004286336040518084815260200183805190602001908083835b6020831015156135ae5780518252602082019150602081019050602083039250613589565b6001836020036101000a0380198251168184511680821785525050505050509050018273ffffffffffffffffffffffffffffffffffffffff1673ffffffffffffffffffffffffffffffffffffffff166c01000000000000000000000000028152601401935050505060405180910390209150600760008360001916600019168152602001908152602001600020905081816000018160001916905550858160010190805190602001906136629291906144aa565b508481600201908051906020019061367b9291906144aa565b506008829080600181540180825580915050906001820390600052602060002001600090919290919091509060001916905550600d60008073ffffffffffffffffffffffffffffffffffffffff168673ffffffffffffffffffffffffffffffffffffffff16146136eb57856136ed565b335b73ffffffffffffffffffffffffffffffffffffffff1673ffffffffffffffffffffffffffffffffffffffff16815260200190815260200160002082908060018154018082558091505090600182039060005260206000200160009091929091909150906000191690555081925050509392505050565b606060008084600080826000191660001916815260200190815260200160002060000160009054906101000a900460ff16151561379f57600080fd5b600080876000191660001916815260200190815260200160002092507f6c617465737400000000000000000000000000000000000000000000000000008560001916141561380d5760026000846002015460001916600019168152602001908152602001600020915061382b565b60026000866000191660001916815260200190815260200160002091505b816006018054600181600116156101000203166002900480601f0160208091040260200160405190810160405280929190818152602001828054600181600116156101000203166002900480156138c35780601f10613898576101008083540402835291602001916138c3565b820191906000526020600020905b8154815290600101906020018083116138a657829003601f168201915b5050505050935050505092915050565b606060008060606000806060806000606060008099505b8b518a10156139ce576000808d8c81518110151561390457fe5b906020019060200201516000191660001916815260200190815260200160002098508860040180548060200260200160405190810160405280929190818152602001828054801561397857602002820191906000526020600020905b81546000191681526020019060010190808311613960575b50505050509750600096505b87518710156139c3576139b8888881518110151561399e57fe5b90602001906020020151600e613b6d90919063ffffffff16565b866001019650613984565b8960010199506138ea565b600095506139dc600e613bda565b945060058c5102604051908082528060200260200182016040528015613a115781602001602082028038833980820191505090505b509350600092505b8451831015613ad3578b51613a4f8685815181101515613a3557fe5b90602001906020020151600e613c7990919063ffffffff16565b1415613a9c578483815181101515613a6357fe5b906020019060200201518484815181101515613a7b57fe5b90602001906020020190600019169081600019168152505085806001019650505b613ac78584815181101515613aad57fe5b90602001906020020151600e613ca490919063ffffffff16565b50826001019250613a19565b85604051908082528060200260200182016040528015613b025781602001602082028038833980820191505090505b509150600090505b85811015613b5b578381815181101515613b2057fe5b906020019060200201518282815181101515613b3857fe5b906020019060200201906000191690816000191681525050806001019050613b0a565b819a5050505050505050505050919050565b613b778282613dfc565b15613bc957600182600001600083600019166000191681526020019081526020016000206002015401826000016000836000191660001916815260200190815260200160002060020181905550613bd6565b613bd582826001613e34565b5b5050565b6060806000808460030154604051908082528060200260200182016040528015613c135781602001602082028038833980820191505090505b50925084600101549150600090505b8460030154811015613c6e57818382815181101515613c3d57fe5b906020019060200201906000191690816000191681525050613c5f8583613e72565b91508080600101915050613c22565b829350505050919050565b6000826000016000836000191660001916815260200190815260200160002060020154905092915050565b60008060008460000160008560001916600019168152602001908152602001600020600101549150846000016000856000191660001916815260200190815260200160002060000154905060006001026000191681600019161415613d155781856001018160001916905550613d3f565b81856000016000836000191660001916815260200190815260200160002060010181600019169055505b60006001026000191682600019161415613d655780856002018160001916905550613d8f565b80856000016000846000191660001916815260200190815260200160002060000181600019169055505b8460000160008560001916600019168152602001908152602001600020600080820160009055600182016000905560028201600090556003820160006101000a81549060ff0219169055505084600301600081548092919060019003919050555060019250505092915050565b6000826000016000836000191660001916815260200190815260200160002060030160009054906101000a900460ff16905092915050565b6000600102600019168360020154600019161415613e5c57613e57838383613e9d565b613e6d565b613e6c8384600201548484613ffb565b5b505050565b6000826000016000836000191660001916815260200190815260200160002060010154905092915050565b826000016000836000191660001916815260200190815260200160002060030160009054906101000a900460ff1615613efa5780836000016000846000191660001916815260200190815260200160002060020181905550613ff6565b6000600102600019168360010154600019161415613fe45781836001018160001916905550818360020181600019169055506080604051908101604052806000600102600019168152602001600060010260001916815260200182815260200160011515815250836000016000846000191660001916815260200190815260200160002060008201518160000190600019169055602082015181600101906000191690556040820151816002015560608201518160030160006101000a81548160ff0219169083151502179055509050508260030160008154809291906001019190505550613ff5565b613ff48384600101548484614229565b5b5b505050565b836000016000836000191660001916815260200190815260200160002060030160009054906101000a900460ff16156140585780846000016000846000191660001916815260200190815260200160002060020181905550614223565b82846000016000846000191660001916815260200190815260200160002060000181600019169055506000600102600019168460000160008560001916600019168152602001908152602001600020600101546000191614156140f45760006001028460000160008460001916600019168152602001908152602001600020600101816000191690555081846002018160001916905550614187565b83600001600084600019166000191681526020019081526020016000206001015484600001600084600019166000191681526020019081526020016000206001018160001916905550818460000160008660000160008760001916600019168152602001908152602001600020600101546000191660001916815260200190815260200160002060000181600019169055505b808460000160008460001916600019168152602001908152602001600020600201819055506001846000016000846000191660001916815260200190815260200160002060030160006101000a81548160ff021916908315150217905550818460000160008560001916600019168152602001908152602001600020600101816000191690555083600301600081548092919060010191905055505b50505050565b836000016000836000191660001916815260200190815260200160002060030160009054906101000a900460ff16156142865780846000016000846000191660001916815260200190815260200160002060020181905550614451565b828460000160008460001916600019168152602001908152602001600020600101816000191690555060006001026000191684600001600085600019166000191681526020019081526020016000206000015460001916141561432257600060010284600001600084600019166000191681526020019081526020016000206000018160001916905550818460010181600019169055506143b5565b83600001600084600019166000191681526020019081526020016000206000015484600001600084600019166000191681526020019081526020016000206000018160001916905550818460000160008660000160008760001916600019168152602001908152602001600020600001546000191660001916815260200190815260200160002060010181600019169055505b808460000160008460001916600019168152602001908152602001600020600201819055506001846000016000846000191660001916815260200190815260200160002060030160006101000a81548160ff021916908315150217905550818460000160008560001916600019168152602001908152602001600020600001816000191690555083600301600081548092919060010191905055505b50505050565b828054828255906000526020600020908101928215614499579160200282015b82811115614498578251829060001916905591602001919060010190614477565b5b5090506144a6919061452a565b5090565b828054600181600116156101000203166002900490600052602060002090601f016020900481019282601f106144eb57805160ff1916838001178555614519565b82800160010185558215614519579182015b828111156145185782518255916020019190600101906144fd565b5b509050614526919061454f565b5090565b61454c91905b80821115614548576000816000905550600101614530565b5090565b90565b61457191905b8082111561456d576000816000905550600101614555565b5090565b905600a165627a7a72305820ef8cf454ce67a7f1151a251f7695b8428769a2c87a934ce0cd01f48282eba7070029",
  "source": "pragma solidity ^0.4.19;\n\nimport \"./PassageHelper.sol\";\nimport \"./Dictionary.sol\";\n\ncontract PassageMain is PassageHelper {\n        \n    using DictionaryBytes32Uint for DictionaryBytes32Uint.Data;\n    DictionaryBytes32Uint.Data private dic;    \n\n    function PassageMain() public {\n      // Creator of the contract is default God\n      godUser = msg.sender;\n    }\n    \n    function createProduct(\n      string _name,\n      string _description,\n      string _latitude,\n      string _longitude,\n      bytes32[] _certificationsIds,\n      string _customJsonData\n    ) public returns (bytes32 productId) {\n    \n        // Generate a pseudo-random product ID\n        // from the current time and the sender's address\n        bytes32 newProductId = keccak256(now, msg.sender);\n\n        // Create product\n        var product = productIdToProductStruct[newProductId];\n\n        // Define product\n        product.productId = newProductId;\n        product.latestVersionId = \"0\"; // temporary value that gets replaced in updateProduct()\n        product.versions = new bytes32[](0); // empty array at first\n        product.exists = true;\n        product.archived = false;\n        product.owner = msg.sender;\n\n        product.name = _name;\n        product.description = _description;\n        product.certificationsIds = _certificationsIds;\n\n        // Add new product ID\n        productIds.push(newProductId);\n\n        // Add product ID to account\n        ownerToProductsId[msg.sender].push(newProductId);\n\n        // Create initial product version\n        updateProduct(newProductId, _latitude, _longitude, _customJsonData);\n\n        // Fire an event to announce the creation of the product\n        ProductCreated(newProductId, msg.sender);\n\n        return newProductId;\n    }\n\n    function updateProduct(\n      bytes32 _productId, \n      string _latitude, \n      string _longitude,\n      string _customJsonData\n    ) public productIdExists(_productId) noChildren(_productId) {\n        // TODO: add ownerOf modifier (causes 'revert' error when added, let's try to debug and fix that)\n        // TODO: check if msg.sender == product owner OR if msg.sender is god\n\n        // Get base product from storage\n        Product storage product = productIdToProductStruct[_productId];\n\n        // Generate a pseudo-random product ID\n        // from the current time, the sender's address, and the productId\n        bytes32 newVersionId = keccak256(now, msg.sender, _productId);\n\n        // Create product version\n        var version = versionIdToVersionStruct[newVersionId];\n\n        // Define new version\n        version.versionId = newVersionId;\n        version.creationDate = now;\n        version.previousVersionId = product.latestVersionId;\n        version.owner = product.owner;\n\n        version.latitude = _latitude;\n        version.longitude = _longitude;\n        version.customJsonData = _customJsonData;\n\n        // Save new product version ID\n        productVersionIds.push(newVersionId);\n\n        // Add new version ID to product\n        product.versions.push(newVersionId);\n\n        // Set ID as product's latest version\n        product.latestVersionId = newVersionId;\n    }\n\n    function getProductById(bytes32 _productId, bytes32 specificVersionId) external view productIdExists(_productId)\n    returns (string name, string description, string _latitude, string _longitude, uint versionCreationDate, bytes32[] versions, bytes32[] certificationsIds) {\n\n      // Get the requested product from storage\n      Product storage product = productIdToProductStruct[_productId];\n\n      // Initialize a variable that will hold the requested product version struct\n      ProductVersion storage requestedVersion;\n\n      if (specificVersionId == \"latest\") {\n        // Get the latest product version\n        requestedVersion = versionIdToVersionStruct[product.latestVersionId];\n\n      } else {\n        // Get the requested product version\n        requestedVersion = versionIdToVersionStruct[specificVersionId];\n      }\n\n      // Return the requested data\n      return (product.name, product.description, requestedVersion.latitude, requestedVersion.longitude, requestedVersion.creationDate, product.versions, product.certificationsIds);\n\n      // TODO: return the product versions using another function (i.e. getProductVersions(_productId))\n      // instead of directly (as above)\n    }\n\n    function getProductCustomDataById(bytes32 _productId, bytes32 specificVersionId) external view productIdExists(_productId)\n    returns (string customJsonData) {\n\n        // Get the requested product from storage\n        Product storage product = productIdToProductStruct[_productId];\n\n        // Initialize a variable that will hold the requested product version struct\n        ProductVersion storage requestedVersion;\n\n        if (specificVersionId == \"latest\") {\n          // Get the latest product version\n          requestedVersion = versionIdToVersionStruct[product.latestVersionId];\n\n        } else {\n          // Get the requested product version\n          requestedVersion = versionIdToVersionStruct[specificVersionId];\n        }\n\n        // Return the requested data\n        return (requestedVersion.customJsonData);\n\n        // TODO: return the product versions using another function (i.e. getProductVersions(_productId))\n        // instead of directly (as above)\n    }\n\n    function saveProductChildren(bytes32 _originalProductId, bytes32[] _newProductIds) public \n    productIdExists(_originalProductId) productIdsExist(_newProductIds) {\n      \n        /* \n        // TODO in the UI:\n        - Scan a product (view)\n        - Split product (button)\n        - Number of different products to split into (number input)\n        - Generate X number of rows to create products (quantity for each row)\n        - Create those products and their IDs\n        - Call this method with the IDs to store children in mapping\n        */\n        for (uint i = 0; i < _newProductIds.length; ++i) {\n            nodeToChildren[_originalProductId].push(_newProductIds[i]);\n        }\n    }\n\n    function combineProducts(bytes32[] _parts, string _name, string _description, string _latitude, string _longitude) public \n    returns (bytes32 newProductId) {\n\n        bytes32[] memory finalCertificationIds = mergeCertifications(_parts);\n\n        var createdProductId = createProduct(_name, _description, _latitude, _longitude, finalCertificationIds, \"\");\n        for (uint i = 0; i < _parts.length; ++i) {\n            nodeToParents[createdProductId].push(_parts[i]);\n            productIdToProductStruct[_parts[i]].archived = true;\n        }\n\n        return createdProductId;\n    }\n\n    function mergeCertifications(bytes32[] parts) private returns (bytes32[] certificationsIds) {\n        \n        // Add all used certifications to dictionary\n        for (uint i = 0; i < parts.length; ++i) {\n            var product = productIdToProductStruct[parts[i]];\n            bytes32[] memory partCerts = product.certificationsIds;\n            for (uint j = 0; j < partCerts.length; ++j) {\n                dic.increment(partCerts[j]);\n            }\n        }\n\n        // Keep certifications that are used by every part\n        uint nbCertsCombined = 0;\n        bytes32[] memory dicKeys = dic.keys();\n        bytes32[] memory certsIds = new bytes32[](parts.length * 5); // Hardcoded limits for current POF\n        for (uint k = 0; k < dicKeys.length; ++k) {\n            if (dic.get(dicKeys[k]) == parts.length) {\n                certsIds[k] = dicKeys[k];\n                nbCertsCombined++;\n            }\n            dic.remove(dicKeys[k]);\n        }\n\n        // Prepare return values\n        bytes32[] memory returnedCerts = new bytes32[](nbCertsCombined);\n        for (uint index = 0; index < nbCertsCombined; ++index) {\n            returnedCerts[index] = certsIds[index];\n        }\n\n        return returnedCerts;\n    }\n\n    function getOwnerProducts() external view returns (bytes32[] productsIds) {\n\n        bytes32[] memory ownedProductsIds = ownerToProductsId[msg.sender];\n        bytes32[] memory activeProducts = new bytes32[](ownedProductsIds.length);\n\n        for (uint i = 0; i < ownedProductsIds.length; ++i) {\n            if (!productIdToProductStruct[ownedProductsIds[i]].archived) {\n                activeProducts[i] = ownedProductsIds[i];\n            }\n        }\n\n        return activeProducts;\n    }\n\n    function createCertification(\n        string _name,\n        string _imageUrl,\n        address _certificationOwner\n    ) public returns (bytes32 certificationId) {\n    \n        // Generate a pseudo-random certification ID\n        // from the current time, the certification name, and the sender's address\n        bytes32 newCertificationId = keccak256(now, _name, msg.sender);\n\n        // Create certification\n        var certification = certificationIdToCertificationStruct[newCertificationId];\n\n        // Define certification\n        certification.certificationId = newCertificationId;\n        certification.name = _name;\n        certification.imageUrl = _imageUrl;\n\n        // Add new certification ID\n        certificationIds.push(newCertificationId);\n\n        // Add certifiction to certifier\n        certifiersAddressToCertificationIds[_certificationOwner == address(0) ? msg.sender : _certificationOwner].push(newCertificationId);\n\n        return newCertificationId;\n    }\n\n    function getAllCertificationsIds() external view returns (bytes32[] certificationsIds) {\n        return certificationIds;\n    }\n\n    function getActorCertificationsIds() external view returns (bytes32[] certificationsIds) {\n        return certifiersAddressToCertificationIds[msg.sender];\n    }\n\n    function getCertificationById(bytes32 _certificationId) external view returns (string name, string imageUrl) {\n\n        // Get the requested certification from storage\n        Certification storage certification = certificationIdToCertificationStruct[_certificationId];\n\n        // Return the requested data\n        return (certification.name, certification.imageUrl);\n    }\n\n    function getVersionLatLngById(bytes32 _versionId) external view returns (string latitude, string longitude) {\n\n        // Get the requested version from storage\n        ProductVersion storage version = versionIdToVersionStruct[_versionId];\n\n        // Return the requested data\n        return (version.latitude, version.longitude);\n    }\n\n    // modify the god user\n    function updateGodUser(address _newGodAddress) public onlyGod {\n        require(_newGodAddress != address(0));\n        godUser = _newGodAddress;\n    }\n\n    function isUserGod() external view returns (bool) {\n        return godUser == msg.sender;\n    }\n}",
  "sourcePath": "/Users/bhavyesharma/Desktop/Blockchain/renamed/trace/contracts/PassageMain.sol",
  "compiler": {
    "name": "solc",
    "version": "0.4.24+commit.e67f0147.Emscripten.clang"
  },
  "schemaVersion": "2.0.1",
  "updatedAt": "2018-08-28T14:20:21.876Z"
}