{
  "contractName": "PassageModel",
  "abi": [
    {
      "constant": true,
      "inputs": [
        {
          "name": "",
          "type": "uint256"
        }
      ],
      "name": "certifingUsers",
      "outputs": [
        {
          "name": "",
          "type": "address"
        }
      ],
      "payable": false,
      "stateMutability": "view",
      "type": "function"
    },
    {
      "constant": true,
      "inputs": [
        {
          "name": "",
          "type": "uint256"
        }
      ],
      "name": "productVersionIds",
      "outputs": [
        {
          "name": "",
          "type": "bytes32"
        }
      ],
      "payable": false,
      "stateMutability": "view",
      "type": "function"
    },
    {
      "constant": true,
      "inputs": [
        {
          "name": "",
          "type": "uint256"
        }
      ],
      "name": "certificationIds",
      "outputs": [
        {
          "name": "",
          "type": "bytes32"
        }
      ],
      "payable": false,
      "stateMutability": "view",
      "type": "function"
    },
    {
      "constant": true,
      "inputs": [
        {
          "name": "",
          "type": "bytes32"
        },
        {
          "name": "",
          "type": "uint256"
        }
      ],
      "name": "nodeToParents",
      "outputs": [
        {
          "name": "",
          "type": "bytes32"
        }
      ],
      "payable": false,
      "stateMutability": "view",
      "type": "function"
    },
    {
      "constant": true,
      "inputs": [
        {
          "name": "",
          "type": "address"
        }
      ],
      "name": "actorAddressToActorStruct",
      "outputs": [
        {
          "name": "actorId",
          "type": "bytes32"
        },
        {
          "name": "name",
          "type": "string"
        },
        {
          "name": "accountAddress",
          "type": "address"
        },
        {
          "name": "physicalAddress",
          "type": "string"
        }
      ],
      "payable": false,
      "stateMutability": "view",
      "type": "function"
    },
    {
      "constant": true,
      "inputs": [
        {
          "name": "",
          "type": "bytes32"
        }
      ],
      "name": "productIdToProductStruct",
      "outputs": [
        {
          "name": "exists",
          "type": "bool"
        },
        {
          "name": "archived",
          "type": "bool"
        },
        {
          "name": "productId",
          "type": "bytes32"
        },
        {
          "name": "latestVersionId",
          "type": "bytes32"
        },
        {
          "name": "owner",
          "type": "address"
        },
        {
          "name": "nextAuthorizedOwnerAddress",
          "type": "address"
        },
        {
          "name": "name",
          "type": "string"
        },
        {
          "name": "description",
          "type": "string"
        }
      ],
      "payable": false,
      "stateMutability": "view",
      "type": "function"
    },
    {
      "constant": true,
      "inputs": [
        {
          "name": "",
          "type": "bytes32"
        }
      ],
      "name": "certificationIdToCertificationStruct",
      "outputs": [
        {
          "name": "certificationId",
          "type": "bytes32"
        },
        {
          "name": "name",
          "type": "string"
        },
        {
          "name": "imageUrl",
          "type": "string"
        }
      ],
      "payable": false,
      "stateMutability": "view",
      "type": "function"
    },
    {
      "constant": true,
      "inputs": [
        {
          "name": "",
          "type": "bytes32"
        }
      ],
      "name": "versionIdToVersionStruct",
      "outputs": [
        {
          "name": "versionId",
          "type": "bytes32"
        },
        {
          "name": "previousVersionId",
          "type": "bytes32"
        },
        {
          "name": "creationDate",
          "type": "uint256"
        },
        {
          "name": "owner",
          "type": "address"
        },
        {
          "name": "latitude",
          "type": "string"
        },
        {
          "name": "longitude",
          "type": "string"
        },
        {
          "name": "customJsonData",
          "type": "string"
        }
      ],
      "payable": false,
      "stateMutability": "view",
      "type": "function"
    },
    {
      "constant": true,
      "inputs": [
        {
          "name": "",
          "type": "uint256"
        }
      ],
      "name": "actorAddresses",
      "outputs": [
        {
          "name": "",
          "type": "address"
        }
      ],
      "payable": false,
      "stateMutability": "view",
      "type": "function"
    },
    {
      "constant": true,
      "inputs": [],
      "name": "godUser",
      "outputs": [
        {
          "name": "",
          "type": "address"
        }
      ],
      "payable": false,
      "stateMutability": "view",
      "type": "function"
    },
    {
      "constant": true,
      "inputs": [
        {
          "name": "",
          "type": "bytes32"
        },
        {
          "name": "",
          "type": "uint256"
        }
      ],
      "name": "nodeToChildren",
      "outputs": [
        {
          "name": "",
          "type": "bytes32"
        }
      ],
      "payable": false,
      "stateMutability": "view",
      "type": "function"
    },
    {
      "constant": true,
      "inputs": [
        {
          "name": "",
          "type": "uint256"
        }
      ],
      "name": "productIds",
      "outputs": [
        {
          "name": "",
          "type": "bytes32"
        }
      ],
      "payable": false,
      "stateMutability": "view",
      "type": "function"
    },
    {
      "constant": true,
      "inputs": [
        {
          "name": "",
          "type": "address"
        },
        {
          "name": "",
          "type": "uint256"
        }
      ],
      "name": "ownerToProductsId",
      "outputs": [
        {
          "name": "",
          "type": "bytes32"
        }
      ],
      "payable": false,
      "stateMutability": "view",
      "type": "function"
    }
  ],
  "bytecode": "0x608060405234801561001057600080fd5b506112a3806100206000396000f3006080604052600436106100c5576000357c0100000000000000000000000000000000000000000000000000000000900463ffffffff1680630ebb2821146100ca5780630f42435b14610137578063395c21111461018057806348964476146101c95780634a9011111461022057806364aa3a481461038a578063860af6991461053a578063876359e41461065f5780639482300a14610839578063a25a8a7e146108a6578063c81e5986146108fd578063cb51bba914610954578063db2b9f181461099d575b600080fd5b3480156100d657600080fd5b506100f560048036038101908080359060200190929190505050610a06565b604051808273ffffffffffffffffffffffffffffffffffffffff1673ffffffffffffffffffffffffffffffffffffffff16815260200191505060405180910390f35b34801561014357600080fd5b5061016260048036038101908080359060200190929190505050610a44565b60405180826000191660001916815260200191505060405180910390f35b34801561018c57600080fd5b506101ab60048036038101908080359060200190929190505050610a67565b60405180826000191660001916815260200191505060405180910390f35b3480156101d557600080fd5b50610202600480360381019080803560001916906020019092919080359060200190929190505050610a8a565b60405180826000191660001916815260200191505060405180910390f35b34801561022c57600080fd5b50610261600480360381019080803573ffffffffffffffffffffffffffffffffffffffff169060200190929190505050610aba565b604051808560001916600019168152602001806020018473ffffffffffffffffffffffffffffffffffffffff1673ffffffffffffffffffffffffffffffffffffffff16815260200180602001838103835286818151815260200191508051906020019080838360005b838110156102e55780820151818401526020810190506102ca565b50505050905090810190601f1680156103125780820380516001836020036101000a031916815260200191505b50838103825284818151815260200191508051906020019080838360005b8381101561034b578082015181840152602081019050610330565b50505050905090810190601f1680156103785780820380516001836020036101000a031916815260200191505b50965050505050505060405180910390f35b34801561039657600080fd5b506103b96004803603810190808035600019169060200190929190505050610c3a565b604051808915151515815260200188151515158152602001876000191660001916815260200186600019166000191681526020018573ffffffffffffffffffffffffffffffffffffffff1673ffffffffffffffffffffffffffffffffffffffff1681526020018473ffffffffffffffffffffffffffffffffffffffff1673ffffffffffffffffffffffffffffffffffffffff1681526020018060200180602001838103835285818151815260200191508051906020019080838360005b83811015610491578082015181840152602081019050610476565b50505050905090810190601f1680156104be5780820380516001836020036101000a031916815260200191505b50838103825284818151815260200191508051906020019080838360005b838110156104f75780820151818401526020810190506104dc565b50505050905090810190601f1680156105245780820380516001836020036101000a031916815260200191505b509a505050505050505050505060405180910390f35b34801561054657600080fd5b506105696004803603810190808035600019169060200190929190505050610e0c565b6040518084600019166000191681526020018060200180602001838103835285818151815260200191508051906020019080838360005b838110156105bb5780820151818401526020810190506105a0565b50505050905090810190601f1680156105e85780820380516001836020036101000a031916815260200191505b50838103825284818151815260200191508051906020019080838360005b83811015610621578082015181840152602081019050610606565b50505050905090810190601f16801561064e5780820380516001836020036101000a031916815260200191505b509550505050505060405180910390f35b34801561066b57600080fd5b5061068e6004803603810190808035600019169060200190929190505050610f66565b60405180886000191660001916815260200187600019166000191681526020018681526020018573ffffffffffffffffffffffffffffffffffffffff1673ffffffffffffffffffffffffffffffffffffffff168152602001806020018060200180602001848103845287818151815260200191508051906020019080838360005b8381101561072a57808201518184015260208101905061070f565b50505050905090810190601f1680156107575780820380516001836020036101000a031916815260200191505b50848103835286818151815260200191508051906020019080838360005b83811015610790578082015181840152602081019050610775565b50505050905090810190601f1680156107bd5780820380516001836020036101000a031916815260200191505b50848103825285818151815260200191508051906020019080838360005b838110156107f65780820151818401526020810190506107db565b50505050905090810190601f1680156108235780820380516001836020036101000a031916815260200191505b509a505050505050505050505060405180910390f35b34801561084557600080fd5b5061086460048036038101908080359060200190929190505050611190565b604051808273ffffffffffffffffffffffffffffffffffffffff1673ffffffffffffffffffffffffffffffffffffffff16815260200191505060405180910390f35b3480156108b257600080fd5b506108bb6111ce565b604051808273ffffffffffffffffffffffffffffffffffffffff1673ffffffffffffffffffffffffffffffffffffffff16815260200191505060405180910390f35b34801561090957600080fd5b506109366004803603810190808035600019169060200190929190803590602001909291905050506111f4565b60405180826000191660001916815260200191505060405180910390f35b34801561096057600080fd5b5061097f60048036038101908080359060200190929190505050611224565b60405180826000191660001916815260200191505060405180910390f35b3480156109a957600080fd5b506109e8600480360381019080803573ffffffffffffffffffffffffffffffffffffffff16906020019092919080359060200190929190505050611247565b60405180826000191660001916815260200191505060405180910390f35b600c81815481101515610a1557fe5b906000526020600020016000915054906101000a900473ffffffffffffffffffffffffffffffffffffffff1681565b600381815481101515610a5357fe5b906000526020600020016000915090505481565b600881815481101515610a7657fe5b906000526020600020016000915090505481565b600960205281600052604060002081815481101515610aa557fe5b90600052602060002001600091509150505481565b6005602052806000526040600020600091509050806000015490806001018054600181600116156101000203166002900480601f016020809104026020016040519081016040528092919081815260200182805460018160011615610100020316600290048015610b6c5780601f10610b4157610100808354040283529160200191610b6c565b820191906000526020600020905b815481529060010190602001808311610b4f57829003601f168201915b5050505050908060020160009054906101000a900473ffffffffffffffffffffffffffffffffffffffff1690806003018054600181600116156101000203166002900480601f016020809104026020016040519081016040528092919081815260200182805460018160011615610100020316600290048015610c305780601f10610c0557610100808354040283529160200191610c30565b820191906000526020600020905b815481529060010190602001808311610c1357829003601f168201915b5050505050905084565b60006020528060005260406000206000915090508060000160009054906101000a900460ff16908060000160019054906101000a900460ff16908060010154908060020154908060050160009054906101000a900473ffffffffffffffffffffffffffffffffffffffff16908060060160009054906101000a900473ffffffffffffffffffffffffffffffffffffffff1690806007018054600181600116156101000203166002900480601f016020809104026020016040519081016040528092919081815260200182805460018160011615610100020316600290048015610d645780601f10610d3957610100808354040283529160200191610d64565b820191906000526020600020905b815481529060010190602001808311610d4757829003601f168201915b505050505090806008018054600181600116156101000203166002900480601f016020809104026020016040519081016040528092919081815260200182805460018160011615610100020316600290048015610e025780601f10610dd757610100808354040283529160200191610e02565b820191906000526020600020905b815481529060010190602001808311610de557829003601f168201915b5050505050905088565b6007602052806000526040600020600091509050806000015490806001018054600181600116156101000203166002900480601f016020809104026020016040519081016040528092919081815260200182805460018160011615610100020316600290048015610ebe5780601f10610e9357610100808354040283529160200191610ebe565b820191906000526020600020905b815481529060010190602001808311610ea157829003601f168201915b505050505090806002018054600181600116156101000203166002900480601f016020809104026020016040519081016040528092919081815260200182805460018160011615610100020316600290048015610f5c5780601f10610f3157610100808354040283529160200191610f5c565b820191906000526020600020905b815481529060010190602001808311610f3f57829003601f168201915b5050505050905083565b60026020528060005260406000206000915090508060000154908060010154908060020154908060030160009054906101000a900473ffffffffffffffffffffffffffffffffffffffff1690806004018054600181600116156101000203166002900480601f01602080910402602001604051908101604052809291908181526020018280546001816001161561010002031660029004801561104a5780601f1061101f5761010080835404028352916020019161104a565b820191906000526020600020905b81548152906001019060200180831161102d57829003601f168201915b505050505090806005018054600181600116156101000203166002900480601f0160208091040260200160405190810160405280929190818152602001828054600181600116156101000203166002900480156110e85780601f106110bd576101008083540402835291602001916110e8565b820191906000526020600020905b8154815290600101906020018083116110cb57829003601f168201915b505050505090806006018054600181600116156101000203166002900480601f0160208091040260200160405190810160405280929190818152602001828054600181600116156101000203166002900480156111865780601f1061115b57610100808354040283529160200191611186565b820191906000526020600020905b81548152906001019060200180831161116957829003601f168201915b5050505050905087565b60068181548110151561119f57fe5b906000526020600020016000915054906101000a900473ffffffffffffffffffffffffffffffffffffffff1681565b600b60009054906101000a900473ffffffffffffffffffffffffffffffffffffffff1681565b600a6020528160005260406000208181548110151561120f57fe5b90600052602060002001600091509150505481565b60018181548110151561123357fe5b906000526020600020016000915090505481565b60046020528160005260406000208181548110151561126257fe5b906000526020600020016000915091505054815600a165627a7a72305820908514193b439ac5301d3f7b6b8cddb561bb9604a40ab2debff61f37812848620029",
  "source": "pragma solidity ^0.4.19;\n\n\ncontract PassageModel {\n\n    /***********************\n      STRUCT DEFINITIONS\n    ***********************/\n    struct Actor {\n        bytes32 actorId;\n        string name;\n        address accountAddress; // Ethereum address\n        string physicalAddress; // Physical address, may be separated (more costly)\n        // TODO: actor certification? ISO:9001?\n    }\n\n    struct Certification {\n        bytes32 certificationId;\n        string name;\n        string imageUrl;\n        // TODO: certification expiration date\n        //bytes32 certificationActorId; // agency/company behind the certification\n    }\n\n    struct ProductVersion {\n        bytes32 versionId;\n        bytes32 previousVersionId;\n        uint creationDate;\n        address owner; // used to keep track of who owned the product at that version (could be a \"bytes32 actorId\")\n        string latitude;\n        string longitude;\n        string customJsonData;\n    }\n    \n    struct Product {\n        bool exists; // always true! (used to check if the product exists)\n        bool archived; // set to true when product gets merged/split\n\n        bytes32 productId;\n        bytes32 latestVersionId;\n        bytes32[] versions;\n        bytes32[] certificationsIds;\n        \n        address owner;\n        address nextAuthorizedOwnerAddress;\n\n        // TODO: standard product categories/descriptions\n        // TODO: allow users to set favourite categories based on their industry\n        // TODO: UPC/EAN codes, GS1 categories https://www.gs1.org/gpc/latest\n\n        string name;\n        string description;\n    }\n    \n    /***********************\n      MAPPINGS & STORAGE\n    ***********************/\n    mapping (bytes32 => Product) public productIdToProductStruct; // access a product struct directly from an ID\n    bytes32[] public productIds; // access all product IDs\n\n    mapping (bytes32 => ProductVersion) public versionIdToVersionStruct; // access a version struct from a version ID\n    bytes32[] public productVersionIds; // access all version IDs\n\n    mapping (address => bytes32[]) public ownerToProductsId; // access an account's products\n\n    mapping (address => Actor) public actorAddressToActorStruct; // access an actor struct from its Eth address\n    address[] public actorAddresses; // access all actor addresses\n\n    mapping (bytes32 => Certification) public certificationIdToCertificationStruct; // access a version struct from a version ID\n    bytes32[] public certificationIds; // access all version IDs\n\n    mapping (bytes32 => bytes32[]) public nodeToParents; // access a combined product's parents\n\n    mapping (bytes32 => bytes32[]) public nodeToChildren; // access a divided product's children\n\n    // TODO: list of god accounts (mapping? array?)\n    address public godUser;\n    address[] public certifingUsers;\n\n    // TODO: handle certifying actors' addresses\n    // (see https://etherscan.io/address/0x06012c8cf97bead5deae237070f9587f8e7a266d#code)\n    mapping (address => bytes32[]) certifiersAddressToCertificationIds; // Certifing Actors to their certifications IDs\n}",
  "sourcePath": "/Users/bhavyesharma/Desktop/Blockchain/renamed/trace/contracts/PassageModel.sol",
  "compiler": {
    "name": "solc",
    "version": "0.4.24+commit.e67f0147.Emscripten.clang"
  },
  "schemaVersion": "2.0.1",
  "updatedAt": "2018-08-28T14:05:50.398Z"
}